{
  "_format": "hh-sol-artifact-1",
  "contractName": "GeoLogixRefund",
  "sourceName": "contracts/gps_tracker.sol",
  "abi": [
    {
      "inputs": [
        {
          "internalType": "address",
          "name": "initialAddress",
          "type": "address"
        }
      ],
      "stateMutability": "nonpayable",
      "type": "constructor"
    },
    {
      "anonymous": false,
      "inputs": [
        {
          "indexed": false,
          "internalType": "address",
          "name": "driverAddress",
          "type": "address"
        },
        {
          "indexed": false,
          "internalType": "bool",
          "name": "isInCompliance",
          "type": "bool"
        }
      ],
      "name": "ComplianceStatusChanged",
      "type": "event"
    },
    {
      "anonymous": false,
      "inputs": [
        {
          "indexed": false,
          "internalType": "address",
          "name": "driverAddress",
          "type": "address"
        },
        {
          "indexed": false,
          "internalType": "uint256",
          "name": "lat",
          "type": "uint256"
        },
        {
          "indexed": false,
          "internalType": "uint256",
          "name": "lon",
          "type": "uint256"
        },
        {
          "indexed": false,
          "internalType": "uint256",
          "name": "timestamp",
          "type": "uint256"
        }
      ],
      "name": "CoordinateIngested",
      "type": "event"
    },
    {
      "anonymous": false,
      "inputs": [
        {
          "indexed": false,
          "internalType": "address",
          "name": "driverAddress",
          "type": "address"
        }
      ],
      "name": "DriverRegistered",
      "type": "event"
    },
    {
      "inputs": [
        {
          "internalType": "uint256",
          "name": "",
          "type": "uint256"
        }
      ],
      "name": "driverAddresses",
      "outputs": [
        {
          "internalType": "address",
          "name": "",
          "type": "address"
        }
      ],
      "stateMutability": "view",
      "type": "function"
    },
    {
      "inputs": [
        {
          "internalType": "address",
          "name": "",
          "type": "address"
        }
      ],
      "name": "drivers",
      "outputs": [
        {
          "internalType": "string",
          "name": "name",
          "type": "string"
        },
        {
          "internalType": "uint256",
          "name": "lat",
          "type": "uint256"
        },
        {
          "internalType": "uint256",
          "name": "lon",
          "type": "uint256"
        },
        {
          "internalType": "uint256",
          "name": "allowedDistance",
          "type": "uint256"
        },
        {
          "internalType": "uint256",
          "name": "requiredTime",
          "type": "uint256"
        },
        {
          "internalType": "uint256",
          "name": "timeTolerance",
          "type": "uint256"
        },
        {
          "internalType": "uint256",
          "name": "refundAmount",
          "type": "uint256"
        },
        {
          "internalType": "uint256",
          "name": "rating",
          "type": "uint256"
        },
        {
          "internalType": "uint256",
          "name": "tokens",
          "type": "uint256"
        },
        {
          "internalType": "bool",
          "name": "isRegistered",
          "type": "bool"
        },
        {
          "internalType": "bool",
          "name": "isInCompliance",
          "type": "bool"
        }
      ],
      "stateMutability": "view",
      "type": "function"
    },
    {
      "inputs": [
        {
          "internalType": "address",
          "name": "driverAddress",
          "type": "address"
        }
      ],
      "name": "getDriver",
      "outputs": [
        {
          "internalType": "string",
          "name": "",
          "type": "string"
        },
        {
          "internalType": "uint256",
          "name": "",
          "type": "uint256"
        },
        {
          "internalType": "uint256",
          "name": "",
          "type": "uint256"
        },
        {
          "internalType": "uint256",
          "name": "",
          "type": "uint256"
        },
        {
          "internalType": "uint256",
          "name": "",
          "type": "uint256"
        },
        {
          "internalType": "uint256",
          "name": "",
          "type": "uint256"
        },
        {
          "internalType": "uint256",
          "name": "",
          "type": "uint256"
        },
        {
          "internalType": "uint256",
          "name": "",
          "type": "uint256"
        },
        {
          "internalType": "uint256",
          "name": "",
          "type": "uint256"
        },
        {
          "internalType": "bool",
          "name": "",
          "type": "bool"
        }
      ],
      "stateMutability": "view",
      "type": "function"
    },
    {
      "inputs": [
        {
          "internalType": "uint256",
          "name": "lat",
          "type": "uint256"
        },
        {
          "internalType": "uint256",
          "name": "lon",
          "type": "uint256"
        },
        {
          "internalType": "uint256",
          "name": "timestamp",
          "type": "uint256"
        }
      ],
      "name": "ingestCoordinate",
      "outputs": [],
      "stateMutability": "nonpayable",
      "type": "function"
    },
    {
      "inputs": [
        {
          "internalType": "address",
          "name": "driverAddress",
          "type": "address"
        }
      ],
      "name": "refund",
      "outputs": [],
      "stateMutability": "payable",
      "type": "function"
    },
    {
      "inputs": [
        {
          "internalType": "address",
          "name": "driverAddress",
          "type": "address"
        },
        {
          "internalType": "string",
          "name": "name",
          "type": "string"
        },
        {
          "internalType": "uint256",
          "name": "lat",
          "type": "uint256"
        },
        {
          "internalType": "uint256",
          "name": "lon",
          "type": "uint256"
        },
        {
          "internalType": "uint256",
          "name": "allowedDistance",
          "type": "uint256"
        },
        {
          "internalType": "uint256",
          "name": "requiredTime",
          "type": "uint256"
        },
        {
          "internalType": "uint256",
          "name": "timeTolerance",
          "type": "uint256"
        },
        {
          "internalType": "uint256",
          "name": "refundAmount",
          "type": "uint256"
        }
      ],
      "name": "registerDriver",
      "outputs": [],
      "stateMutability": "nonpayable",
      "type": "function"
    },
    {
      "inputs": [
        {
          "internalType": "address",
          "name": "driverAddress",
          "type": "address"
        }
      ],
      "name": "removeDriver",
      "outputs": [],
      "stateMutability": "nonpayable",
      "type": "function"
    },
    {
      "inputs": [
        {
          "internalType": "address",
          "name": "driverAddress",
          "type": "address"
        }
      ],
      "name": "reward",
      "outputs": [],
      "stateMutability": "payable",
      "type": "function"
    },
    {
      "inputs": [
        {
          "internalType": "address",
          "name": "driverAddress",
          "type": "address"
        },
        {
          "internalType": "uint256",
          "name": "newLat",
          "type": "uint256"
        },
        {
          "internalType": "uint256",
          "name": "newLon",
          "type": "uint256"
        },
        {
          "internalType": "uint256",
          "name": "newAllowedDistance",
          "type": "uint256"
        },
        {
          "internalType": "uint256",
          "name": "newRequiredTime",
          "type": "uint256"
        },
        {
          "internalType": "uint256",
          "name": "newTimeTolerance",
          "type": "uint256"
        },
        {
          "internalType": "uint256",
          "name": "newRefundAmount",
          "type": "uint256"
        }
      ],
      "name": "updateDriverInfo",
      "outputs": [],
      "stateMutability": "nonpayable",
      "type": "function"
    }
  ],
  "bytecode": "0x608060405234801561001057600080fd5b5060405162002eb338038062002eb3833981016040819052610031916100b2565b600080546001600160a01b031916331790556040518190610051906100a4565b6001600160a01b039091168152602001604051809103906000f08015801561007d573d6000803e3d6000fd5b50600180546001600160a01b0319166001600160a01b0392909216919091179055506100e2565b611838806200167b83390190565b6000602082840312156100c457600080fd5b81516001600160a01b03811681146100db57600080fd5b9392505050565b61158980620000f26000396000f3fe6080604052600436106100865760003560e01c8063784a341d11610059578063784a341d146101365780638c63ee7f14610156578063c26bacd114610176578063c85feec414610196578063fa89401a146101ce57600080fd5b80634aa601861461008b5780636353586b146100cb57806365c301ab146100e05780636945f08d14610116575b600080fd5b34801561009757600080fd5b506100ab6100a6366004610fc8565b6101e1565b6040516100c29b9a99989796959493929190611030565b60405180910390f35b6100de6100d9366004610fc8565b6102c6565b005b3480156100ec57600080fd5b506101006100fb366004610fc8565b610479565b6040516100c29a99989796959493929190611097565b34801561012257600080fd5b506100de6101313660046110f3565b61063e565b34801561014257600080fd5b506100de610151366004611135565b6108f9565b34801561016257600080fd5b506100de61017136600461122c565b610b21565b34801561018257600080fd5b506100de610191366004610fc8565b610bc8565b3480156101a257600080fd5b506101b66101b136600461127f565b610da2565b6040516001600160a01b0390911681526020016100c2565b6100de6101dc366004610fc8565b610dcc565b6002602052600090815260409020805481906101fc90611298565b80601f016020809104026020016040519081016040528092919081815260200182805461022890611298565b80156102755780601f1061024a57610100808354040283529160200191610275565b820191906000526020600020905b81548152906001019060200180831161025857829003601f168201915b50505060018401546002850154600386015460048701546005880154600689015460078a015460088b01546009909b0154999a96999598509396509194909391929160ff808216916101009004168b565b6000546001600160a01b031633146102f95760405162461bcd60e51b81526004016102f0906112d2565b60405180910390fd5b6001600160a01b03811660009081526002602052604090206009015460ff166103345760405162461bcd60e51b81526004016102f090611314565b6001600160a01b038116600090815260026020526040902060090154610100900460ff166103a45760405162461bcd60e51b815260206004820152601b60248201527f447269766572206973206e6f7420696e20636f6d706c69616e6365000000000060448201526064016102f0565b6001600160a01b03811660009081526002602081905260408220600701546103cb91611361565b60015460405163a9059cbb60e01b81526001600160a01b0385811660048301526024820184905292935091169063a9059cbb906044016020604051808303816000875af1158015610420573d6000803e3d6000fd5b505050506040513d601f19601f820116820180604052508101906104449190611378565b506001600160a01b0382166000908152600260205260408120600801805483929061047090849061139a565b90915550505050565b6060600080600080600080600080600080600260008d6001600160a01b03166001600160a01b03168152602001908152602001600020604051806101600160405290816000820180546104cb90611298565b80601f01602080910402602001604051908101604052809291908181526020018280546104f790611298565b80156105445780601f1061051957610100808354040283529160200191610544565b820191906000526020600020905b81548152906001019060200180831161052757829003601f168201915b505050918352505060018201546020820152600282015460408201526003820154606082015260048201546080820152600582015460a0820152600682015460c0820152600782015460e082015260088201546101008083019190915260099092015460ff80821615156101208085019190915293909104161515610140909101528101519091506105e85760405162461bcd60e51b81526004016102f090611314565b806000015181602001518260400151836060015184608001518560a001518660c001518760e001518861010001518961014001519a509a509a509a509a509a509a509a509a509a50509193959799509193959799565b3360008181526002602052604090206009015460ff166106705760405162461bcd60e51b81526004016102f090611314565b600061067d858584610ee4565b6001600160a01b03831660009081526002602052604090206009810154600390910154919250610100900460ff16908211806106d357506001600160a01b03831660009081526002602052604090206004015484105b8061070957506001600160a01b03831660009081526002602052604090206005810154600490910154610706919061139a565b84115b15610737576001600160a01b0383166000908152600260205260409020600901805461ff0019169055610760565b6001600160a01b0383166000908152600260205260409020600901805461ff0019166101001790555b6001600160a01b038316600090815260026020526040902060090154610100900460ff161515811515146107ed576001600160a01b038316600081815260026020908152604091829020600901548251938452610100900460ff161515908301527ff1bf4fdc75f29b6c8f35b7808597b7e9c104efd356c3f8ee86e76023da1417e0910160405180910390a15b604080516001600160a01b038516815260208101889052908101869052606081018590527f871cd4e942d2de3725c95ab57705eeda726c0b88abb280a749c900d733c4cdc99060800160405180910390a16001600160a01b038316600090815260026020526040902060090154610100900460ff161561089e576001600160a01b038316600090815260026020526040812060070180546001929061089390849061139a565b909155506108f19050565b6001600160a01b038316600090815260026020526040902060070154156108f1576001600160a01b03831660009081526002602052604081206007018054600192906108eb9084906113ad565b90915550505b505050505050565b6000546001600160a01b031633146109235760405162461bcd60e51b81526004016102f0906112d2565b6001600160a01b03881660009081526002602052604090206009015460ff161561098f5760405162461bcd60e51b815260206004820152601c60248201527f44726976657220697320616c726561647920726567697374657265640000000060448201526064016102f0565b60408051610160810182528881526020808201899052818301889052606082018790526080820186905260a0820185905260c08201849052600060e083018190526101008301819052600161012084015261014083018190526001600160a01b038c16815260029091529190912081518190610a0b908261140b565b50602082810151600183810191909155604080850151600285015560608501516003808601919091556080860151600486015560a0860151600586015560c0860151600686015560e08601516007860155610100808701516008870155610120870151600990960180546101409098015161ffff1990981696151561ff001916969096179615150295909517909355835490810184556000939093527fc2575a0e9e593c00f959f8c92f12db2869c3395a3b0502d05e2516446f71f85b90920180546001600160a01b0319166001600160a01b038c1690811790915590519081527fbe5e7a1c543800c6abb49749a131598b050660d403a09b2e31318c2048c00d74910160405180910390a15050505050505050565b6000546001600160a01b03163314610b4b5760405162461bcd60e51b81526004016102f0906112d2565b6001600160a01b03871660009081526002602052604090206009015460ff16610b865760405162461bcd60e51b81526004016102f090611314565b6001600160a01b039096166000908152600260208190526040909120600181019690965585019390935560038401919091556004830155600582015560060155565b6000546001600160a01b03163314610bf25760405162461bcd60e51b81526004016102f0906112d2565b6001600160a01b03811660009081526002602052604090206009015460ff16610c2d5760405162461bcd60e51b81526004016102f090611314565b6001600160a01b038116600090815260026020526040812090610c508282610f56565b50600060018201819055600282018190556003820181905560048201819055600582018190556006820181905560078201819055600882018190556009909101805461ffff191690555b600354811015610d9e57816001600160a01b031660038281548110610cc157610cc16114cb565b6000918252602090912001546001600160a01b031603610d8c5760038054610ceb906001906113ad565b81548110610cfb57610cfb6114cb565b600091825260209091200154600380546001600160a01b039092169183908110610d2757610d276114cb565b9060005260206000200160006101000a8154816001600160a01b0302191690836001600160a01b031602179055506003805480610d6657610d666114e1565b600082815260209020810160001990810180546001600160a01b03191690550190555050565b80610d96816114f7565b915050610c9a565b5050565b60038181548110610db257600080fd5b6000918252602090912001546001600160a01b0316905081565b6000546001600160a01b03163314610df65760405162461bcd60e51b81526004016102f0906112d2565b6001600160a01b03811660009081526002602052604090206009015460ff16610e315760405162461bcd60e51b81526004016102f090611314565b6001600160a01b038116600090815260026020526040902060090154610100900460ff16610ea15760405162461bcd60e51b815260206004820152601b60248201527f447269766572206973206e6f7420696e20636f6d706c69616e6365000000000060448201526064016102f0565b6001600160a01b03811660008181526002602052604080822060060154905181156108fc0292818181858888f19350505050158015610d9e573d6000803e3d6000fd5b6000806000610ef284610479565b5050505050505092509250506000610f148287610f0f9190611510565b610f36565b610f21610f0f858a611510565b610f2b919061139a565b979650505050505050565b600080821215610f4e57610f4982611537565b610f50565b815b92915050565b508054610f6290611298565b6000825580601f10610f72575050565b601f016020900490600052602060002090810190610f909190610f93565b50565b5b80821115610fa85760008155600101610f94565b5090565b80356001600160a01b0381168114610fc357600080fd5b919050565b600060208284031215610fda57600080fd5b610fe382610fac565b9392505050565b6000815180845260005b8181101561101057602081850181015186830182015201610ff4565b506000602082860101526020601f19601f83011685010191505092915050565b60006101608083526110448184018f610fea565b602084019d909d52505060408101999099526060890197909752608088019590955260a087019390935260c086019190915260e08501526101008401521515610120830152151561014090910152919050565b60006101408083526110ab8184018e610fea565b602084019c909c52505060408101989098526060880196909652608087019490945260a086019290925260c085015260e0840152610100830152151561012090910152919050565b60008060006060848603121561110857600080fd5b505081359360208301359350604090920135919050565b634e487b7160e01b600052604160045260246000fd5b600080600080600080600080610100898b03121561115257600080fd5b61115b89610fac565b9750602089013567ffffffffffffffff8082111561117857600080fd5b818b0191508b601f83011261118c57600080fd5b81358181111561119e5761119e61111f565b604051601f8201601f19908116603f011681019083821181831017156111c6576111c661111f565b816040528281528e60208487010111156111df57600080fd5b8260208601602083013760009281016020019290925250999c999b505050506040880135976060810135976080820135975060a0820135965060c0820135955060e0909101359350915050565b600080600080600080600060e0888a03121561124757600080fd5b61125088610fac565b9960208901359950604089013598606081013598506080810135975060a0810135965060c00135945092505050565b60006020828403121561129157600080fd5b5035919050565b600181811c908216806112ac57607f821691505b6020821081036112cc57634e487b7160e01b600052602260045260246000fd5b50919050565b60208082526022908201527f4f6e6c79206f776e65722063616e20706572666f726d2074686973206163746960408201526137b760f11b606082015260800190565b60208082526018908201527f447269766572206973206e6f7420726567697374657265640000000000000000604082015260600190565b634e487b7160e01b600052601160045260246000fd5b8082028115828204841417610f5057610f5061134b565b60006020828403121561138a57600080fd5b81518015158114610fe357600080fd5b80820180821115610f5057610f5061134b565b81810381811115610f5057610f5061134b565b601f82111561140657600081815260208120601f850160051c810160208610156113e75750805b601f850160051c820191505b818110156108f1578281556001016113f3565b505050565b815167ffffffffffffffff8111156114255761142561111f565b611439816114338454611298565b846113c0565b602080601f83116001811461146e57600084156114565750858301515b600019600386901b1c1916600185901b1785556108f1565b600085815260208120601f198616915b8281101561149d5788860151825594840194600190910190840161147e565b50858210156114bb5787850151600019600388901b60f8161c191681555b5050505050600190811b01905550565b634e487b7160e01b600052603260045260246000fd5b634e487b7160e01b600052603160045260246000fd5b6000600182016115095761150961134b565b5060010190565b81810360008312801583831316838312821617156115305761153061134b565b5092915050565b6000600160ff1b820161154c5761154c61134b565b506000039056fea26469706673582212203c7f2fa9793f1adca8954b2e7474d9263a813d3a64e72b98b59fb2bfed802cc464736f6c634300081400336101606040523480156200001257600080fd5b50604051620018383803806200183883398101604081905262000035916200043d565b806040518060400160405280600d81526020016c23b2b7a637b3b4bc2a37b5b2b760991b81525080604051806040016040528060018152602001603160f81b8152506040518060400160405280600d81526020016c23b2b7a637b3b4bc2a37b5b2b760991b8152506040518060400160405280600281526020016111d560f21b8152508160039081620000c9919062000514565b506004620000d8828262000514565b50620000ea91508390506005620001fe565b61012052620000fb816006620001fe565b61014052815160208084019190912060e052815190820120610100524660a0526200018960e05161010051604080517f8b73c3c69bb8fe3d512ecc4cf759cc79239f7b179b0ffacaa9a75d522b39400f60208201529081019290925260608201524660808201523060a082015260009060c00160405160208183030381529060405280519060200120905090565b60805250503060c052506001600160a01b038116620001c357604051631e4fbdf760e01b8152600060048201526024015b60405180910390fd5b620001ce8162000237565b50620001f733620001e26012600a620006f3565b620001f190620186a062000704565b62000289565b50620007a9565b60006020835110156200021e576200021683620002c7565b905062000231565b816200022b848262000514565b5060ff90505b92915050565b600880546001600160a01b038381166001600160a01b0319831681179093556040519116919082907f8be0079c531659141344cd1fd0a4f28419497f9722a3daafe3b4186f6b6457e090600090a35050565b6001600160a01b038216620002b55760405163ec442f0560e01b815260006004820152602401620001ba565b620002c3600083836200030a565b5050565b600080829050601f81511115620002f5578260405163305a27a960e01b8152600401620001ba91906200071e565b805162000302826200076e565b179392505050565b6001600160a01b038316620003395780600260008282546200032d919062000793565b90915550620003ad9050565b6001600160a01b038316600090815260208190526040902054818110156200038e5760405163391434e360e21b81526001600160a01b03851660048201526024810182905260448101839052606401620001ba565b6001600160a01b03841660009081526020819052604090209082900390555b6001600160a01b038216620003cb57600280548290039055620003ea565b6001600160a01b03821660009081526020819052604090208054820190555b816001600160a01b0316836001600160a01b03167fddf252ad1be2c89b69c2b068fc378daa952ba7f163c4a11628f55a4df523b3ef836040516200043091815260200190565b60405180910390a3505050565b6000602082840312156200045057600080fd5b81516001600160a01b03811681146200046857600080fd5b9392505050565b634e487b7160e01b600052604160045260246000fd5b600181811c908216806200049a57607f821691505b602082108103620004bb57634e487b7160e01b600052602260045260246000fd5b50919050565b601f8211156200050f57600081815260208120601f850160051c81016020861015620004ea5750805b601f850160051c820191505b818110156200050b57828155600101620004f6565b5050505b505050565b81516001600160401b038111156200053057620005306200046f565b620005488162000541845462000485565b84620004c1565b602080601f831160018114620005805760008415620005675750858301515b600019600386901b1c1916600185901b1785556200050b565b600085815260208120601f198616915b82811015620005b15788860151825594840194600190910190840162000590565b5085821015620005d05787850151600019600388901b60f8161c191681555b5050505050600190811b01905550565b634e487b7160e01b600052601160045260246000fd5b600181815b80851115620006375781600019048211156200061b576200061b620005e0565b808516156200062957918102915b93841c9390800290620005fb565b509250929050565b600082620006505750600162000231565b816200065f5750600062000231565b81600181146200067857600281146200068357620006a3565b600191505062000231565b60ff841115620006975762000697620005e0565b50506001821b62000231565b5060208310610133831016604e8410600b8410161715620006c8575081810a62000231565b620006d48383620005f6565b8060001904821115620006eb57620006eb620005e0565b029392505050565b60006200046860ff8416836200063f565b8082028115828204841417620002315762000231620005e0565b600060208083528351808285015260005b818110156200074d578581018301518582016040015282016200072f565b506000604082860101526040601f19601f8301168501019250505092915050565b80516020808301519190811015620004bb5760001960209190910360031b1b16919050565b80820180821115620002315762000231620005e0565b60805160a05160c05160e05161010051610120516101405161103462000804600039600061083601526000610809015260006107320152600061070a015260006106650152600061068f015260006106b901526110346000f3fe608060405234801561001057600080fd5b50600436106101005760003560e01c80637ecebe0011610097578063a9059cbb11610066578063a9059cbb14610206578063d505accf14610219578063dd62ed3e1461022c578063f2fde38b1461026557600080fd5b80637ecebe00146101b557806384b0196e146101c85780638da5cb5b146101e357806395d89b41146101fe57600080fd5b8063313ce567116100d3578063313ce5671461016b5780633644e5151461017a57806370a0823114610182578063715018a6146101ab57600080fd5b806306fdde0314610105578063095ea7b31461012357806318160ddd1461014657806323b872dd14610158575b600080fd5b61010d610278565b60405161011a9190610d9a565b60405180910390f35b610136610131366004610dd0565b61030a565b604051901515815260200161011a565b6002545b60405190815260200161011a565b610136610166366004610dfa565b610324565b6040516012815260200161011a565b61014a610348565b61014a610190366004610e36565b6001600160a01b031660009081526020819052604090205490565b6101b3610357565b005b61014a6101c3366004610e36565b61036b565b6101d0610389565b60405161011a9796959493929190610e51565b6008546040516001600160a01b03909116815260200161011a565b61010d6103cf565b610136610214366004610dd0565b6103de565b6101b3610227366004610ee7565b6103ec565b61014a61023a366004610f5a565b6001600160a01b03918216600090815260016020908152604080832093909416825291909152205490565b6101b3610273366004610e36565b61052b565b60606003805461028790610f8d565b80601f01602080910402602001604051908101604052809291908181526020018280546102b390610f8d565b80156103005780601f106102d557610100808354040283529160200191610300565b820191906000526020600020905b8154815290600101906020018083116102e357829003601f168201915b5050505050905090565b600033610318818585610569565b60019150505b92915050565b60003361033285828561057b565b61033d8585856105f9565b506001949350505050565b6000610352610658565b905090565b61035f610783565b61036960006107b0565b565b6001600160a01b03811660009081526007602052604081205461031e565b60006060806000806000606061039d610802565b6103a561082f565b60408051600080825260208201909252600f60f81b9b939a50919850469750309650945092509050565b60606004805461028790610f8d565b6000336103188185856105f9565b834211156104155760405163313c898160e11b8152600481018590526024015b60405180910390fd5b60007f6e71edae12b1b97f4d1f60370fef10105fa2faae0126114a169c64845d6126c98888886104628c6001600160a01b0316600090815260076020526040902080546001810190915590565b6040805160208101969096526001600160a01b0394851690860152929091166060840152608083015260a082015260c0810186905260e00160405160208183030381529060405280519060200120905060006104bd8261085c565b905060006104cd82878787610889565b9050896001600160a01b0316816001600160a01b031614610514576040516325c0072360e11b81526001600160a01b0380831660048301528b16602482015260440161040c565b61051f8a8a8a610569565b50505050505050505050565b610533610783565b6001600160a01b03811661055d57604051631e4fbdf760e01b81526000600482015260240161040c565b610566816107b0565b50565b61057683838360016108b7565b505050565b6001600160a01b0383811660009081526001602090815260408083209386168352929052205460001981146105f357818110156105e457604051637dc7a0d960e11b81526001600160a01b0384166004820152602481018290526044810183905260640161040c565b6105f3848484840360006108b7565b50505050565b6001600160a01b03831661062357604051634b637e8f60e11b81526000600482015260240161040c565b6001600160a01b03821661064d5760405163ec442f0560e01b81526000600482015260240161040c565b61057683838361098c565b6000306001600160a01b037f0000000000000000000000000000000000000000000000000000000000000000161480156106b157507f000000000000000000000000000000000000000000000000000000000000000046145b156106db57507f000000000000000000000000000000000000000000000000000000000000000090565b610352604080517f8b73c3c69bb8fe3d512ecc4cf759cc79239f7b179b0ffacaa9a75d522b39400f60208201527f0000000000000000000000000000000000000000000000000000000000000000918101919091527f000000000000000000000000000000000000000000000000000000000000000060608201524660808201523060a082015260009060c00160405160208183030381529060405280519060200120905090565b6008546001600160a01b031633146103695760405163118cdaa760e01b815233600482015260240161040c565b600880546001600160a01b038381166001600160a01b0319831681179093556040519116919082907f8be0079c531659141344cd1fd0a4f28419497f9722a3daafe3b4186f6b6457e090600090a35050565b60606103527f00000000000000000000000000000000000000000000000000000000000000006005610ab6565b60606103527f00000000000000000000000000000000000000000000000000000000000000006006610ab6565b600061031e610869610658565b8360405161190160f01b8152600281019290925260228201526042902090565b60008060008061089b88888888610b61565b9250925092506108ab8282610c30565b50909695505050505050565b6001600160a01b0384166108e15760405163e602df0560e01b81526000600482015260240161040c565b6001600160a01b03831661090b57604051634a1406b160e11b81526000600482015260240161040c565b6001600160a01b03808516600090815260016020908152604080832093871683529290522082905580156105f357826001600160a01b0316846001600160a01b03167f8c5be1e5ebec7d5bd14f71427d1e84f3dd0314c0f7b2291e5b200ac8c7c3b9258460405161097e91815260200190565b60405180910390a350505050565b6001600160a01b0383166109b75780600260008282546109ac9190610fc7565b90915550610a299050565b6001600160a01b03831660009081526020819052604090205481811015610a0a5760405163391434e360e21b81526001600160a01b0385166004820152602481018290526044810183905260640161040c565b6001600160a01b03841660009081526020819052604090209082900390555b6001600160a01b038216610a4557600280548290039055610a64565b6001600160a01b03821660009081526020819052604090208054820190555b816001600160a01b0316836001600160a01b03167fddf252ad1be2c89b69c2b068fc378daa952ba7f163c4a11628f55a4df523b3ef83604051610aa991815260200190565b60405180910390a3505050565b606060ff8314610ad057610ac983610ced565b905061031e565b818054610adc90610f8d565b80601f0160208091040260200160405190810160405280929190818152602001828054610b0890610f8d565b8015610b555780601f10610b2a57610100808354040283529160200191610b55565b820191906000526020600020905b815481529060010190602001808311610b3857829003601f168201915b5050505050905061031e565b600080807f7fffffffffffffffffffffffffffffff5d576e7357a4501ddfe92f46681b20a0841115610b9c5750600091506003905082610c26565b604080516000808252602082018084528a905260ff891692820192909252606081018790526080810186905260019060a0016020604051602081039080840390855afa158015610bf0573d6000803e3d6000fd5b5050604051601f1901519150506001600160a01b038116610c1c57506000925060019150829050610c26565b9250600091508190505b9450945094915050565b6000826003811115610c4457610c44610fe8565b03610c4d575050565b6001826003811115610c6157610c61610fe8565b03610c7f5760405163f645eedf60e01b815260040160405180910390fd5b6002826003811115610c9357610c93610fe8565b03610cb45760405163fce698f760e01b81526004810182905260240161040c565b6003826003811115610cc857610cc8610fe8565b03610ce9576040516335e2f38360e21b81526004810182905260240161040c565b5050565b60606000610cfa83610d2c565b604080516020808252818301909252919250600091906020820181803683375050509182525060208101929092525090565b600060ff8216601f81111561031e57604051632cd44ac360e21b815260040160405180910390fd5b6000815180845260005b81811015610d7a57602081850181015186830182015201610d5e565b506000602082860101526020601f19601f83011685010191505092915050565b602081526000610dad6020830184610d54565b9392505050565b80356001600160a01b0381168114610dcb57600080fd5b919050565b60008060408385031215610de357600080fd5b610dec83610db4565b946020939093013593505050565b600080600060608486031215610e0f57600080fd5b610e1884610db4565b9250610e2660208501610db4565b9150604084013590509250925092565b600060208284031215610e4857600080fd5b610dad82610db4565b60ff60f81b881681526000602060e081840152610e7160e084018a610d54565b8381036040850152610e83818a610d54565b606085018990526001600160a01b038816608086015260a0850187905284810360c0860152855180825283870192509083019060005b81811015610ed557835183529284019291840191600101610eb9565b50909c9b505050505050505050505050565b600080600080600080600060e0888a031215610f0257600080fd5b610f0b88610db4565b9650610f1960208901610db4565b95506040880135945060608801359350608088013560ff81168114610f3d57600080fd5b9699959850939692959460a0840135945060c09093013592915050565b60008060408385031215610f6d57600080fd5b610f7683610db4565b9150610f8460208401610db4565b90509250929050565b600181811c90821680610fa157607f821691505b602082108103610fc157634e487b7160e01b600052602260045260246000fd5b50919050565b8082018082111561031e57634e487b7160e01b600052601160045260246000fd5b634e487b7160e01b600052602160045260246000fdfea264697066735822122047a6668d628b1a987fa5385460cd80c5cf3bcb2e4585dd6677e7aca4eac904bc64736f6c63430008140033",
  "linkReferences": {},
  "deployedLinkReferences": {}
}